:100000000C942A000C9447000C9447000C94470071
:100010000C9447000C9447000C9447000C94470044
:100020000C9447000C9447000C9447000C94D002A9
:100030000C9447000C9447000C9447000C94470024
:100040000C9447000C9447000C9447000C94470014
:100050000C94470011241FBECFE5D8E0DEBFCDBF12
:1000600011E0A0E6B0E0E6E6F2E102C005900D92F4
:10007000A432B107D9F721E0A4E2B1E001C01D929A
:10008000A633B207E1F70E94F6070C9431090C94ED
:100090000000CF93C82F40E061E082E00E9403019E
:1000A0006C2F80E00E94E90041E060E082E00E9465
:1000B000030183EF91E00197F1F700C0000040E0F9
:1000C00060E082E00E940301CF9108958FE097E203
:1000D0000197F1F700C0000088E30E9449008CE01E
:1000E0000E94490081E00E9449000895CF93C82FE3
:1000F00041E061E082E00E9403016C2F80E00E94F9
:10010000E90041E060E082E00E94030183EF91E0BA
:100110000197F1F700C0000040E060E082E00E943B
:100120000301CF9108950F931F93CF938C01C0E0EB
:1001300003C00E947600CF5FF801EC0FF11D8081B3
:100140008111F7CFCF911F910F910895882329F046
:10015000813021F490E4960F01C0962F892F80689A
:100160000E9449000895CF939B01AC01672B682B37
:10017000692BC9F480E30E94760029C0CA01B90145
:100180002AE030E040E050E00E940F098C2F90E020
:10019000E62FF0E0E359FF4F6081FC01EC5DFE4F7C
:1001A0006083CF5F01C0C0E02115310541055105D5
:1001B00029F7C1500AC0EC2F0C2E000CFF0BEC5D90
:1001C000FE4F80810E947600C150CC23A4F7CF91CE
:1001D00008958430A0F4813049F028F0823049F04D
:1001E000833051F00EC06BBB80E0089568BB80E0A7
:1001F000089565BB80E0089562BB80E0089581E0CA
:10020000089580E00895843008F07BC0683008F0DD
:100210007AC04130C1F5813091F028F08230D9F0B8
:10022000833029F172C02BB381E090E002C0880FC7
:10023000991F6A95E2F7822B8BBB80E0089528B363
:1002400081E090E002C0880F991F6A95E2F7822B47
:1002500088BB80E0089525B381E090E002C0880F5C
:10026000991F6A95E2F7822B85BB80E0089522B33F
:1002700081E090E002C0880F991F6A95E2F7822B17
:1002800082BB80E00895411142C0813099F028F08E
:100290008230E9F0833041F13CC02BB381E090E043
:1002A00002C0880F991F6A95E2F7809582238BBB65
:1002B00080E0089528B381E090E002C0880F991F84
:1002C0006A95E2F78095822388BB80E0089525B384
:1002D00081E090E002C0880F991F6A95E2F780954F
:1002E000822385BB80E0089522B381E090E002C0C4
:1002F000880F991F6A95E2F78095822382BB80E080
:10030000089581E0089581E0089580E0089580E0F7
:10031000089580E008958430A0F4813049F028F0F9
:10032000823049F0833051F00EC06ABB80E00895FE
:1003300067BB80E0089564BB80E0089561BB80E006
:10034000089581E0089580E00895843008F07BC02E
:10035000683008F07AC04130C1F5813091F028F062
:100360008230D9F0833029F172C02AB381E090E065
:1003700002C0880F991F6A95E2F7822B8ABB80E042
:10038000089527B381E090E002C0880F991F6A9515
:10039000E2F7822B87BB80E0089524B381E090E0F0
:1003A00002C0880F991F6A95E2F7822B84BB80E018
:1003B000089521B381E090E002C0880F991F6A95EB
:1003C000E2F7822B81BB80E00895411142C0813069
:1003D00099F028F08230E9F0833041F13CC02AB333
:1003E00081E090E002C0880F991F6A95E2F780953E
:1003F00082238ABB80E0089527B381E090E002C0A9
:10040000880F991F6A95E2F78095822387BB80E069
:10041000089524B381E090E002C0880F991F6A9587
:10042000E2F78095822384BB80E0089521B381E0C8
:1004300090E002C0880F991F6A95E2F780958223A9
:1004400081BB80E0089581E0089581E0089580E017
:10045000089580E0089580E008958430D0F56830F4
:10046000D0F5813091F028F08230D9F0833029F135
:1004700034C089B390E002C0959587956A95E2F7FC
:100480008170FA01808380E0089586B390E002C015
:10049000959587956A95E2F78170FA01808380E0EF
:1004A000089583B390E002C0959587956A95E2F729
:1004B0008170FA01808380E0089580B390E002C0EB
:1004C000959587956A95E2F78170FA01808380E0BF
:1004D000089581E0089581E0089580E008958FB740
:1004E00080688FBF0895CF92DF92EF92FF920F93B3
:1004F0001F93CF93DF931F92CDB7DEB700E042C0CA
:10050000C02ED12CF601E557FF4F40E0608183E01B
:100510000E94030110E02BC0E12EF12CF701E957F6
:10052000FF4FAE014F5F5F4F608183E00E942D025D
:10053000898181111BC0C701880F991F880F991FDE
:1005400089589F4FFC01EC0DFD1D10810AC0AE01C2
:100550004F5F5F4FF701E957FF4F608183E00E94D3
:100560002D029981992399F3812F10C01F5F1430B8
:1005700098F2F601E557FF4F41E0608183E00E9469
:1005800003010F5F043008F4BBCF8FEF0F90DF91B2
:10059000CF911F910F91FF90EF90DF90CF90089532
:1005A0001F920F920FB60F9211242F938F939F9348
:1005B00080912E0190912F01019690932F018093AD
:1005C0002E0183349F4059F480EC82BF8091320128
:1005D0008F5F8093320110922F0110922E019F9114
:1005E0008F912F910F900FBE0F901F9018950F9322
:1005F0001F93613071058105910571F162307105BC
:100600008105910571F1633071058105910571F1E5
:10061000653071058105910571F1663071058105BF
:10062000910571F1673071058105910571F16930AE
:1006300071058105910571F16A307105810591059A
:1006400071F16B3071058105910571F16E307105A5
:100650008105910589F52DC007E010E020E030E02C
:100660002BC008E010E020E030E026C009E010E0F8
:1006700020E030E021C004E010E020E030E01CC0C9
:1006800005E010E020E030E017C006E010E020E0D8
:1006900030E012C001E010E020E030E00DC002E0E8
:1006A00010E020E030E008C003E010E020E030E09F
:1006B00003C000E010E09801C8011F910F91089558
:1006C0009091300180916100981323C09091310185
:1006D0008091620098131DC090913201809160005A
:1006E000981317C081E00E9449008FE890E00E94B3
:1006F000930060E081E00E94A60089EA90E00E94F9
:10070000930041E067E081E00E94A50188B3806822
:1007100088BB089581E00E9449008FE890E00E9424
:10072000930060E081E00E94A60080EC90E00E94CF
:10073000930040E067E081E00E94A50188B38F77D5
:1007400088BB089581E00E94490082E191E00E9407
:10075000930060E081E00E94A60088ED90E00E9496
:10076000930067E081E00E94A6002FEF84E39CE005
:10077000215080409040E1F700C000000E947302C9
:10078000809333018F3FD1F3682F70E080E090E0D9
:100790000E94F702BC01990F880B990B0E94B300CD
:1007A0006091330170E080E090E00E94F702809356
:1007B00033012FEF83EC99E0215080409040E1F726
:1007C00000C000000E947302809334018F3FD1F378
:1007D000682F70E080E090E00E94F702BC01990F62
:1007E000880B990B0E94B3006091340170E080E0A7
:1007F00090E00E94F702809334012FEF82E597E0AA
:10080000215080409040E1F700C00000809133010A
:10081000880F982F990F990F890F90913401890FA4
:100820008093610081E00E94490082E191E00E9492
:10083000930060E081E00E94A60082EE90E00E94BA
:10084000930069E081E00E94A6000E9473028093F9
:1008500033018F3FD1F3682F70E080E090E00E9479
:10086000F702BC01990F880B990B0E94B3006091AD
:10087000330170E080E090E00E94F7028093330142
:100880002FEF83EC99E0215080409040E1F700C0C9
:1008900000000E947302809334018F3FD1F3682FD0
:1008A00070E080E090E00E94F702BC01990F880B95
:1008B000990B0E94B3006091340170E080E090E0F9
:1008C0000E94F702809334012FEF82E597E02150D8
:1008D00080409040E1F700C0000080913301880F14
:1008E000982F990F990F890F90913401890F809358
:1008F0006200809162008D3380F0809162008C53A1
:1009000080936200809161008F5F8093610080918D
:100910006100883110F01092610081E00E9449006E
:1009200082E191E00E94930060E081E00E94A600D5
:100930008EEE90E00E94930069E081E00E94A600A4
:100940000E947302809333018F3FD1F3682F70E0D0
:1009500080E090E00E94F702BC01990F880B990B90
:100960000E94B3006091330170E080E090E00E944B
:10097000F702809333012FEF83EC99E02150804000
:100980009040E1F700C000000E94730280933401A0
:100990008F3FD1F3682F70E080E090E00E94F70273
:1009A000BC01990F880B990B0E94B3006091340130
:1009B00070E080E090E00E94F702809334012FEF16
:1009C00082E597E0215080409040E1F700C00000B0
:1009D00080913301880F982F990F990F890F90916B
:1009E0003401890F80936000809160008D3350F056
:1009F000809160008C5380936000809162008F5FD3
:100A00008093620081E00E9449008FE890E00E949C
:100A1000930060E081E00E94A6008AEF90E00E94CF
:100A200093006091610070E080E090E00E94B3006C
:100A300084E191E00E9493006091620070E080E0A8
:100A400090E00E94B30084E191E00E9493006091E5
:100A5000600070E080E090E00E94B300089581E0C3
:100A60000E94490088ED90E00E94930067E080E0DA
:100A70000E94A6002FEF84E39CE02150804090402C
:100A8000E1F700C000000E947302809333018F3FA2
:100A9000D1F3682F70E080E090E00E94F702BC0183
:100AA000990F880B990B0E94B3006091330170E09D
:100AB00080E090E00E94F702809333012FEF83ECF7
:100AC00099E0215080409040E1F700C000000E9472
:100AD0007302809334018F3FD1F3682F70E080E080
:100AE00090E00E94F702BC01990F880B990B0E94BD
:100AF000B3006091340170E080E090E00E94F70262
:100B0000809334012FEF82E597E0215080409040A0
:100B1000E1F700C0000080913301880F982F990FF2
:100B2000990F890F90913401890F8093300181E0F2
:100B30000E94490082EE90E00E94930069E080E00C
:100B40000E94A6000E947302809333018F3FD1F36D
:100B5000682F70E080E090E00E94F702BC01990FDE
:100B6000880B990B0E94B3006091330170E080E024
:100B700090E00E94F702809333012FEF83EC99E01D
:100B8000215080409040E1F700C000000E947302B5
:100B9000809334018F3FD1F3682F70E080E090E0C4
:100BA0000E94F702BC01990F880B990B0E94B300B9
:100BB0006091340170E080E090E00E94F702809341
:100BC00034012FEF82E597E0215080409040E1F71B
:100BD00000C0000080913301880F982F990F990F62
:100BE000890F90913401890F8093310180913101F7
:100BF0008D3380F0809131018C538093310180914D
:100C000030018F5F8093300180913001883110F086
:100C10001092300181E00E9449008EEE90E00E9427
:100C2000930069E080E00E94A6000E947302809316
:100C300033018F3FD1F3682F70E080E090E00E9495
:100C4000F702BC01990F880B990B0E94B3006091C9
:100C5000330170E080E090E00E94F702809333015E
:100C60002FEF83EC99E0215080409040E1F700C0E5
:100C700000000E947302809334018F3FD1F3682FEC
:100C800070E080E090E00E94F702BC01990F880BB1
:100C9000990B0E94B3006091340170E080E090E015
:100CA0000E94F702809334012FEF82E597E02150F4
:100CB00080409040E1F700C0000080913301880F30
:100CC000982F990F990F890F90913401890F809374
:100CD0003201809132018D3350F0809132018C537A
:100CE00080933201809131018F5F80933101809137
:100CF0006000843641F480916200843621F4809152
:100D000061008436C9F180913201811108C080915F
:100D10003101811104C080913001882369F181E0A3
:100D20000E9449008FE890E00E94930060E081E01B
:100D30000E94A6008AEF90E00E94930060916100FB
:100D400070E080E090E00E94B30084E191E00E94B6
:100D500093006091620070E080E090E00E94B30038
:100D600084E191E00E9493006091600070E080E077
:100D700090E00E94B300089581E00E9449008FE84E
:100D800090E00E94930060E081E00E94A60080EC69
:100D900090E00E9493000895CF9341E063E082E0E9
:100DA0000E94030141E064E082E00E94030141E00F
:100DB00065E082E00E94030141E066E082E00E947B
:100DC000030141E067E082E00E94030140E062E04D
:100DD00082E00E94030180913201CDEC8C9F912D25
:100DE0001124969596959695990F292F220F220FEB
:100DF000920F891B0E94D6088FE097E20197F1F7C6
:100E000000C0000041E062E082E00E94030141E096
:100E100064E082E00E94030141E065E082E00E941C
:100E2000030141E066E082E00E94030141E067E0E7
:100E300082E00E94030140E063E082E00E9403013F
:100E4000809132018C9F812D1124869586958695FF
:100E50000E94D6088FE097E20197F1F700C00000EA
:100E600041E062E082E00E94030141E063E082E051
:100E70000E94030141E065E082E00E94030141E03D
:100E800066E082E00E94030141E067E082E00E94A8
:100E9000030140E064E082E00E940301809131019F
:100EA0008C9F912D1124969596959695990F292FA3
:100EB000220F220F920F891B0E94D6088FE097E223
:100EC0000197F1F700C0000041E062E082E00E947B
:100ED000030141E063E082E00E94030141E064E03D
:100EE00082E00E94030141E066E082E00E9403018B
:100EF00041E067E082E00E94030140E065E082E0BB
:100F00000E940301809131018C9F812D11248695CF
:100F1000869586950E94D6088FE097E20197F1F7B3
:100F200000C0000041E062E082E00E94030141E075
:100F300063E082E00E94030141E064E082E00E94FD
:100F4000030141E065E082E00E94030141E067E0C7
:100F500082E00E94030140E066E082E00E9403011B
:100F6000809130018C9F912D1124969596959695A0
:100F7000990F292F220F220F920F891B0E94D6084A
:100F80008FE097E20197F1F700C0000041E062E0D6
:100F900082E00E94030141E063E082E00E940301DD
:100FA00041E064E082E00E94030141E065E082E00C
:100FB0000E94030141E066E082E00E94030140E0FC
:100FC00067E082E00E940301809130018C9F812DB7
:100FD00011248695869586950E94D6088FE097E223
:100FE0000197F1F700C00000CF9108956FEF80E006
:100FF0000E948B016FEF82E00E948B010E946600CD
:101000006FE083E00E948B016FEF83E00E94E900B4
:1010100041E060E081E00E94A50141E061E081E003
:101020000E94A50141E062E081E00E94A50141E04B
:1010300063E081E00E94A50141E064E081E00E945C
:10104000A50141E065E081E00E94A50141E066E084
:1010500081E00E94A5018FE890E00E94930060E08B
:1010600081E00E94A60080EC90E00E9493000E9424
:10107000FA0880EC0E940D090E946F020E94730220
:10108000809335018F3F09F470C0893019F40E94B4
:101090002F056BC08A3019F40E94A20366C08E30FF
:1010A00019F40E948A0361C081E00E94490086E130
:1010B00091E00E9493002FEF89E698E12150804053
:1010C0009040E1F700C0000081E00E94490080915B
:1010D0006000843641F480916200843621F480916E
:1010E00061008436B1F180913201811108C0809194
:1010F0003101811104C080913001882351F18FE8C2
:1011000090E00E94930060E081E00E94A6008AEFD8
:1011100090E00E9493006091610070E080E090E0B8
:101120000E94B30084E191E00E949300609162000C
:1011300070E080E090E00E94B30084E191E00E94C2
:1011400093006091600070E080E090E00E94B30046
:101150000CC08FE890E00E94930060E081E00E9464
:10116000A60080EC90E00E9493000E94CC06809143
:1011700032018C3339F410923201809131018F5F4A
:1011800080933101809131018C3339F41092310117
:10119000809130018F5F80933001809130018831E0
:1011A00011F4109230010E94600368CFCF93DF9357
:1011B000CDB7DEB72A970FB6F894DEBF0FBECDBF0E
:1011C0009AE0E3E6F0E0DE01119601900D929A9527
:1011D000E1F7E1E0F0E0EC0FFD1FE80FF11D808189
:1011E00088BB2A960FB6F894DEBF0FBECDBFDF9145
:1011F000CF91089583B7877F83BF83B78F7B83BFEA
:1012000083B78E7F83BF83B7826083BF83B78B7FB3
:1012100083BF89B7816089BF089582BF0895A1E225
:101220001A2EAA1BBB1BFD010DC0AA1FBB1FEE1F60
:10123000FF1FA217B307E407F50720F0A21BB30BAB
:10124000E40BF50B661F771F881F991F1A9469F727
:1012500060957095809590959B01AC01BD01CF0183
:061260000895F894FFCF91
:101266006464643F065B4F666D7D077F6F30313285
:1012760033343536373839010203040506070809C1
:101286000A0B0C0D0E0F10040506070001020320C1
:101296005072657373203120746F2061646A7573B0
:1012A6007420636C6F636B2000507265737320301B
:1012B60020746F20436C6F736520616C61726D00E2
:1012C6005072657373203220746F2061646A75737F
:1012D6007420616C61726D0020686F7572733D2DAC
:1012E6002D00206D696E757465733D2D2D0020737C
:1012F60065636F6E64733D2D2D00507265737320A8
:101306003220746F2061646A75737420616C617237
:101316006D2020003A002077726F6E672063686F39
:041326006963650092
:00000001FF
